{
  "_format": "hh-sol-artifact-1",
  "contractName": "ShittyPaint",
  "sourceName": "contracts/ShittyPaint.sol",
  "abi": [
    {
      "inputs": [
        {
          "internalType": "string",
          "name": "baseURI",
          "type": "string"
        }
      ],
      "stateMutability": "nonpayable",
      "type": "constructor"
    },
    {
      "anonymous": false,
      "inputs": [
        {
          "indexed": true,
          "internalType": "address",
          "name": "owner",
          "type": "address"
        },
        {
          "indexed": true,
          "internalType": "address",
          "name": "approved",
          "type": "address"
        },
        {
          "indexed": true,
          "internalType": "uint256",
          "name": "tokenId",
          "type": "uint256"
        }
      ],
      "name": "Approval",
      "type": "event"
    },
    {
      "anonymous": false,
      "inputs": [
        {
          "indexed": true,
          "internalType": "address",
          "name": "owner",
          "type": "address"
        },
        {
          "indexed": true,
          "internalType": "address",
          "name": "operator",
          "type": "address"
        },
        {
          "indexed": false,
          "internalType": "bool",
          "name": "approved",
          "type": "bool"
        }
      ],
      "name": "ApprovalForAll",
      "type": "event"
    },
    {
      "anonymous": false,
      "inputs": [
        {
          "indexed": true,
          "internalType": "address",
          "name": "previousOwner",
          "type": "address"
        },
        {
          "indexed": true,
          "internalType": "address",
          "name": "newOwner",
          "type": "address"
        }
      ],
      "name": "OwnershipTransferred",
      "type": "event"
    },
    {
      "anonymous": false,
      "inputs": [
        {
          "indexed": true,
          "internalType": "address",
          "name": "from",
          "type": "address"
        },
        {
          "indexed": true,
          "internalType": "address",
          "name": "to",
          "type": "address"
        },
        {
          "indexed": true,
          "internalType": "uint256",
          "name": "tokenId",
          "type": "uint256"
        }
      ],
      "name": "Transfer",
      "type": "event"
    },
    {
      "inputs": [],
      "name": "MAX_PER_MINT",
      "outputs": [
        {
          "internalType": "uint256",
          "name": "",
          "type": "uint256"
        }
      ],
      "stateMutability": "view",
      "type": "function"
    },
    {
      "inputs": [],
      "name": "MAX_SUPPLY",
      "outputs": [
        {
          "internalType": "uint256",
          "name": "",
          "type": "uint256"
        }
      ],
      "stateMutability": "view",
      "type": "function"
    },
    {
      "inputs": [],
      "name": "PRICE",
      "outputs": [
        {
          "internalType": "uint256",
          "name": "",
          "type": "uint256"
        }
      ],
      "stateMutability": "view",
      "type": "function"
    },
    {
      "inputs": [
        {
          "internalType": "address",
          "name": "to",
          "type": "address"
        },
        {
          "internalType": "uint256",
          "name": "tokenId",
          "type": "uint256"
        }
      ],
      "name": "approve",
      "outputs": [],
      "stateMutability": "nonpayable",
      "type": "function"
    },
    {
      "inputs": [
        {
          "internalType": "address",
          "name": "owner",
          "type": "address"
        }
      ],
      "name": "balanceOf",
      "outputs": [
        {
          "internalType": "uint256",
          "name": "",
          "type": "uint256"
        }
      ],
      "stateMutability": "view",
      "type": "function"
    },
    {
      "inputs": [],
      "name": "baseTokenURI",
      "outputs": [
        {
          "internalType": "string",
          "name": "",
          "type": "string"
        }
      ],
      "stateMutability": "view",
      "type": "function"
    },
    {
      "inputs": [
        {
          "internalType": "uint256",
          "name": "tokenId",
          "type": "uint256"
        }
      ],
      "name": "getApproved",
      "outputs": [
        {
          "internalType": "address",
          "name": "",
          "type": "address"
        }
      ],
      "stateMutability": "view",
      "type": "function"
    },
    {
      "inputs": [
        {
          "internalType": "address",
          "name": "owner",
          "type": "address"
        },
        {
          "internalType": "address",
          "name": "operator",
          "type": "address"
        }
      ],
      "name": "isApprovedForAll",
      "outputs": [
        {
          "internalType": "bool",
          "name": "",
          "type": "bool"
        }
      ],
      "stateMutability": "view",
      "type": "function"
    },
    {
      "inputs": [],
      "name": "mintNFT",
      "outputs": [
        {
          "internalType": "uint256",
          "name": "",
          "type": "uint256"
        }
      ],
      "stateMutability": "payable",
      "type": "function"
    },
    {
      "inputs": [],
      "name": "name",
      "outputs": [
        {
          "internalType": "string",
          "name": "",
          "type": "string"
        }
      ],
      "stateMutability": "view",
      "type": "function"
    },
    {
      "inputs": [],
      "name": "owner",
      "outputs": [
        {
          "internalType": "address",
          "name": "",
          "type": "address"
        }
      ],
      "stateMutability": "view",
      "type": "function"
    },
    {
      "inputs": [
        {
          "internalType": "uint256",
          "name": "tokenId",
          "type": "uint256"
        }
      ],
      "name": "ownerOf",
      "outputs": [
        {
          "internalType": "address",
          "name": "",
          "type": "address"
        }
      ],
      "stateMutability": "view",
      "type": "function"
    },
    {
      "inputs": [],
      "name": "renounceOwnership",
      "outputs": [],
      "stateMutability": "nonpayable",
      "type": "function"
    },
    {
      "inputs": [
        {
          "internalType": "address",
          "name": "from",
          "type": "address"
        },
        {
          "internalType": "address",
          "name": "to",
          "type": "address"
        },
        {
          "internalType": "uint256",
          "name": "tokenId",
          "type": "uint256"
        }
      ],
      "name": "safeTransferFrom",
      "outputs": [],
      "stateMutability": "nonpayable",
      "type": "function"
    },
    {
      "inputs": [
        {
          "internalType": "address",
          "name": "from",
          "type": "address"
        },
        {
          "internalType": "address",
          "name": "to",
          "type": "address"
        },
        {
          "internalType": "uint256",
          "name": "tokenId",
          "type": "uint256"
        },
        {
          "internalType": "bytes",
          "name": "_data",
          "type": "bytes"
        }
      ],
      "name": "safeTransferFrom",
      "outputs": [],
      "stateMutability": "nonpayable",
      "type": "function"
    },
    {
      "inputs": [
        {
          "internalType": "address",
          "name": "operator",
          "type": "address"
        },
        {
          "internalType": "bool",
          "name": "approved",
          "type": "bool"
        }
      ],
      "name": "setApprovalForAll",
      "outputs": [],
      "stateMutability": "nonpayable",
      "type": "function"
    },
    {
      "inputs": [
        {
          "internalType": "string",
          "name": "_baseTokenURI",
          "type": "string"
        }
      ],
      "name": "setBaseURI",
      "outputs": [],
      "stateMutability": "nonpayable",
      "type": "function"
    },
    {
      "inputs": [
        {
          "internalType": "bytes4",
          "name": "interfaceId",
          "type": "bytes4"
        }
      ],
      "name": "supportsInterface",
      "outputs": [
        {
          "internalType": "bool",
          "name": "",
          "type": "bool"
        }
      ],
      "stateMutability": "view",
      "type": "function"
    },
    {
      "inputs": [],
      "name": "symbol",
      "outputs": [
        {
          "internalType": "string",
          "name": "",
          "type": "string"
        }
      ],
      "stateMutability": "view",
      "type": "function"
    },
    {
      "inputs": [
        {
          "internalType": "uint256",
          "name": "index",
          "type": "uint256"
        }
      ],
      "name": "tokenByIndex",
      "outputs": [
        {
          "internalType": "uint256",
          "name": "",
          "type": "uint256"
        }
      ],
      "stateMutability": "view",
      "type": "function"
    },
    {
      "inputs": [
        {
          "internalType": "address",
          "name": "owner",
          "type": "address"
        },
        {
          "internalType": "uint256",
          "name": "index",
          "type": "uint256"
        }
      ],
      "name": "tokenOfOwnerByIndex",
      "outputs": [
        {
          "internalType": "uint256",
          "name": "",
          "type": "uint256"
        }
      ],
      "stateMutability": "view",
      "type": "function"
    },
    {
      "inputs": [
        {
          "internalType": "uint256",
          "name": "tokenId",
          "type": "uint256"
        }
      ],
      "name": "tokenURI",
      "outputs": [
        {
          "internalType": "string",
          "name": "",
          "type": "string"
        }
      ],
      "stateMutability": "view",
      "type": "function"
    },
    {
      "inputs": [],
      "name": "totalSupply",
      "outputs": [
        {
          "internalType": "uint256",
          "name": "",
          "type": "uint256"
        }
      ],
      "stateMutability": "view",
      "type": "function"
    },
    {
      "inputs": [
        {
          "internalType": "address",
          "name": "from",
          "type": "address"
        },
        {
          "internalType": "address",
          "name": "to",
          "type": "address"
        },
        {
          "internalType": "uint256",
          "name": "tokenId",
          "type": "uint256"
        }
      ],
      "name": "transferFrom",
      "outputs": [],
      "stateMutability": "nonpayable",
      "type": "function"
    },
    {
      "inputs": [
        {
          "internalType": "address",
          "name": "newOwner",
          "type": "address"
        }
      ],
      "name": "transferOwnership",
      "outputs": [],
      "stateMutability": "nonpayable",
      "type": "function"
    },
    {
      "inputs": [],
      "name": "withdraw",
      "outputs": [],
      "stateMutability": "payable",
      "type": "function"
    }
  ],
  "bytecode": "0x60806040523480156200001157600080fd5b50604051620023c7380380620023c78339810160408190526200003491620001de565b604080518082018252600b81526a14da1a5d1d1e54185a5b9d60aa1b60208083019182528351808501909452600584526414d413919560da1b908401528151919291620000849160009162000138565b5080516200009a90600190602084019062000138565b505050620000b7620000b1620000c960201b60201c565b620000cd565b620000c2816200011f565b5062000307565b3390565b600a80546001600160a01b038381166001600160a01b0319831681179093556040519116919082907f8be0079c531659141344cd1fd0a4f28419497f9722a3daafe3b4186f6b6457e090600090a35050565b80516200013490600c90602084019062000138565b5050565b8280546200014690620002b4565b90600052602060002090601f0160209004810192826200016a5760008555620001b5565b82601f106200018557805160ff1916838001178555620001b5565b82800160010185558215620001b5579182015b82811115620001b557825182559160200191906001019062000198565b50620001c3929150620001c7565b5090565b5b80821115620001c35760008155600101620001c8565b60006020808385031215620001f1578182fd5b82516001600160401b038082111562000208578384fd5b818501915085601f8301126200021c578384fd5b815181811115620002315762000231620002f1565b604051601f8201601f19908116603f011681019083821181831017156200025c576200025c620002f1565b81604052828152888684870101111562000274578687fd5b8693505b8284101562000297578484018601518185018701529285019262000278565b82841115620002a857868684830101525b98975050505050505050565b600281046001821680620002c957607f821691505b60208210811415620002eb57634e487b7160e01b600052602260045260246000fd5b50919050565b634e487b7160e01b600052604160045260246000fd5b6120b080620003176000396000f3fe6080604052600436106101815760003560e01c806355f804b3116100d157806395d89b411161008a578063c87b56dd11610064578063c87b56dd146103fd578063d547cfb71461041d578063e985e9c514610432578063f2fde38b1461045257610181565b806395d89b41146103a8578063a22cb465146103bd578063b88d4fde146103dd57610181565b806355f804b3146103095780636352211e1461032957806370a0823114610349578063715018a6146103695780638d859f3e1461037e5780638da5cb5b1461039357610181565b806318160ddd1161013e57806332cb6b0c1161011857806332cb6b0c146102ac5780633ccfd60b146102c157806342842e0e146102c95780634f6ccce7146102e957610181565b806318160ddd1461025757806323b872dd1461026c5780632f745c591461028c57610181565b806301ffc9a71461018657806306fdde03146101bc578063081812fc146101de578063095ea7b31461020b57806309d42b301461022d57806314f710fe1461024f575b600080fd5b34801561019257600080fd5b506101a66101a13660046117fc565b610472565b6040516101b39190611941565b60405180910390f35b3480156101c857600080fd5b506101d161049f565b6040516101b3919061194c565b3480156101ea57600080fd5b506101fe6101f936600461187a565b610531565b6040516101b391906118f0565b34801561021757600080fd5b5061022b6102263660046117d3565b61057d565b005b34801561023957600080fd5b50610242610615565b6040516101b39190611f40565b61024261061a565b34801561026357600080fd5b50610242610684565b34801561027857600080fd5b5061022b6102873660046116e5565b61068a565b34801561029857600080fd5b506102426102a73660046117d3565b6106c2565b3480156102b857600080fd5b50610242610714565b61022b610719565b3480156102d557600080fd5b5061022b6102e43660046116e5565b6107f6565b3480156102f557600080fd5b5061024261030436600461187a565b610811565b34801561031557600080fd5b5061022b610324366004611834565b61086c565b34801561033557600080fd5b506101fe61034436600461187a565b61087f565b34801561035557600080fd5b50610242610364366004611699565b6108b4565b34801561037557600080fd5b5061022b6108f8565b34801561038a57600080fd5b50610242610943565b34801561039f57600080fd5b506101fe61094e565b3480156103b457600080fd5b506101d161095d565b3480156103c957600080fd5b5061022b6103d8366004611799565b61096c565b3480156103e957600080fd5b5061022b6103f8366004611720565b61097e565b34801561040957600080fd5b506101d161041836600461187a565b6109bd565b34801561042957600080fd5b506101d1610a40565b34801561043e57600080fd5b506101a661044d3660046116b3565b610ace565b34801561045e57600080fd5b5061022b61046d366004611699565b610afc565b60006001600160e01b0319821663780e9d6360e01b1480610497575061049782610b6d565b90505b919050565b6060600080546104ae90611fb8565b80601f01602080910402602001604051908101604052809291908181526020018280546104da90611fb8565b80156105275780601f106104fc57610100808354040283529160200191610527565b820191906000526020600020905b81548152906001019060200180831161050a57829003601f168201915b5050505050905090565b600061053c82610bad565b6105615760405162461bcd60e51b815260040161055890611d27565b60405180910390fd5b506000908152600460205260409020546001600160a01b031690565b60006105888261087f565b9050806001600160a01b0316836001600160a01b031614156105bc5760405162461bcd60e51b815260040161055890611df7565b806001600160a01b03166105ce610bca565b6001600160a01b031614806105ea57506105ea8161044d610bca565b6106065760405162461bcd60e51b815260040161055890611b85565b6106108383610bce565b505050565b600181565b60006611c37937e080003410156106435760405162461bcd60e51b815260040161055890611eff565b601961064f600b610c3c565b111561066d5760405162461bcd60e51b815260040161055890611c75565b610675610c40565b61067f600b610c3c565b905090565b60085490565b61069b610695610bca565b82610c62565b6106b75760405162461bcd60e51b815260040161055890611e62565b610610838383610ce7565b60006106cd836108b4565b82106106eb5760405162461bcd60e51b81526004016105589061195f565b506001600160a01b03919091166000908152600660209081526040808320938352929052205490565b601981565b610721610bca565b6001600160a01b031661073261094e565b6001600160a01b0316146107585760405162461bcd60e51b815260040161055890611d73565b47806107765760405162461bcd60e51b815260040161055890611cf0565b6000336001600160a01b03168260405161078f906118ed565b60006040518083038185875af1925050503d80600081146107cc576040519150601f19603f3d011682016040523d82523d6000602084013e6107d1565b606091505b50509050806107f25760405162461bcd60e51b815260040161055890611e38565b5050565b6106108383836040518060200160405280600081525061097e565b600061081b610684565b82106108395760405162461bcd60e51b815260040161055890611eb3565b6008828154811061085a57634e487b7160e01b600052603260045260246000fd5b90600052602060002001549050919050565b80516107f290600c906020840190611573565b6000818152600260205260408120546001600160a01b0316806104975760405162461bcd60e51b815260040161055890611c2c565b60006001600160a01b0382166108dc5760405162461bcd60e51b815260040161055890611be2565b506001600160a01b031660009081526003602052604090205490565b610900610bca565b6001600160a01b031661091161094e565b6001600160a01b0316146109375760405162461bcd60e51b815260040161055890611d73565b6109416000610e1a565b565b6611c37937e0800081565b600a546001600160a01b031690565b6060600180546104ae90611fb8565b6107f2610977610bca565b8383610e6c565b61098f610989610bca565b83610c62565b6109ab5760405162461bcd60e51b815260040161055890611e62565b6109b784848484610f0f565b50505050565b60606109c882610bad565b6109e45760405162461bcd60e51b815260040161055890611da8565b60006109ee610f42565b90506000815111610a0e5760405180602001604052806000815250610a39565b80610a1884610f51565b604051602001610a299291906118be565b6040516020818303038152906040525b9392505050565b600c8054610a4d90611fb8565b80601f0160208091040260200160405190810160405280929190818152602001828054610a7990611fb8565b8015610ac65780601f10610a9b57610100808354040283529160200191610ac6565b820191906000526020600020905b815481529060010190602001808311610aa957829003601f168201915b505050505081565b6001600160a01b03918216600090815260056020908152604080832093909416825291909152205460ff1690565b610b04610bca565b6001600160a01b0316610b1561094e565b6001600160a01b031614610b3b5760405162461bcd60e51b815260040161055890611d73565b6001600160a01b038116610b615760405162461bcd60e51b8152600401610558906119fc565b610b6a81610e1a565b50565b60006001600160e01b031982166380ac58cd60e01b1480610b9e57506001600160e01b03198216635b5e139f60e01b145b8061049757506104978261106c565b6000908152600260205260409020546001600160a01b0316151590565b3390565b600081815260046020526040902080546001600160a01b0319166001600160a01b0384169081179091558190610c038261087f565b6001600160a01b03167f8c5be1e5ebec7d5bd14f71427d1e84f3dd0314c0f7b2291e5b200ac8c7c3b92560405160405180910390a45050565b5490565b6000610c4c600b610c3c565b9050610c583382611085565b610b6a600b61109f565b6000610c6d82610bad565b610c895760405162461bcd60e51b815260040161055890611b39565b6000610c948361087f565b9050806001600160a01b0316846001600160a01b03161480610ccf5750836001600160a01b0316610cc484610531565b6001600160a01b0316145b80610cdf5750610cdf8185610ace565b949350505050565b826001600160a01b0316610cfa8261087f565b6001600160a01b031614610d205760405162461bcd60e51b815260040161055890611a42565b6001600160a01b038216610d465760405162461bcd60e51b815260040161055890611abe565b610d518383836110a8565b610d5c600082610bce565b6001600160a01b0383166000908152600360205260408120805460019290610d85908490611f75565b90915550506001600160a01b0382166000908152600360205260408120805460019290610db3908490611f49565b909155505060008181526002602052604080822080546001600160a01b0319166001600160a01b0386811691821790925591518493918716917fddf252ad1be2c89b69c2b068fc378daa952ba7f163c4a11628f55a4df523b3ef91a4610610838383610610565b600a80546001600160a01b038381166001600160a01b0319831681179093556040519116919082907f8be0079c531659141344cd1fd0a4f28419497f9722a3daafe3b4186f6b6457e090600090a35050565b816001600160a01b0316836001600160a01b03161415610e9e5760405162461bcd60e51b815260040161055890611b02565b6001600160a01b0383811660008181526005602090815260408083209487168084529490915290819020805460ff1916851515179055517f17307eab39ab6107e8899845ad3d59bd9653f200f220920489ca2b5937696c3190610f02908590611941565b60405180910390a3505050565b610f1a848484610ce7565b610f2684848484611131565b6109b75760405162461bcd60e51b8152600401610558906119aa565b6060600c80546104ae90611fb8565b606081610f7657506040805180820190915260018152600360fc1b602082015261049a565b8160005b8115610fa05780610f8a81611ff3565b9150610f999050600a83611f61565b9150610f7a565b60008167ffffffffffffffff811115610fc957634e487b7160e01b600052604160045260246000fd5b6040519080825280601f01601f191660200182016040528015610ff3576020820181803683370190505b5090505b8415610cdf57611008600183611f75565b9150611015600a8661200e565b611020906030611f49565b60f81b81838151811061104357634e487b7160e01b600052603260045260246000fd5b60200101906001600160f81b031916908160001a905350611065600a86611f61565b9450610ff7565b6001600160e01b031981166301ffc9a760e01b14919050565b6107f282826040518060200160405280600081525061124c565b80546001019055565b6110b3838383610610565b6001600160a01b0383166110cf576110ca8161127f565b6110f2565b816001600160a01b0316836001600160a01b0316146110f2576110f283826112c3565b6001600160a01b03821661110e5761110981611360565b610610565b826001600160a01b0316826001600160a01b031614610610576106108282611439565b6000611145846001600160a01b031661147d565b1561124157836001600160a01b031663150b7a02611161610bca565b8786866040518563ffffffff1660e01b81526004016111839493929190611904565b602060405180830381600087803b15801561119d57600080fd5b505af19250505080156111cd575060408051601f3d908101601f191682019092526111ca91810190611818565b60015b611227573d8080156111fb576040519150601f19603f3d011682016040523d82523d6000602084013e611200565b606091505b50805161121f5760405162461bcd60e51b8152600401610558906119aa565b805181602001fd5b6001600160e01b031916630a85bd0160e11b149050610cdf565b506001949350505050565b611256838361148c565b6112636000848484611131565b6106105760405162461bcd60e51b8152600401610558906119aa565b600880546000838152600960205260408120829055600182018355919091527ff3f7a9fe364faab93b216da50a3214154f22a0a2b415b23a84c8169e8b636ee30155565b600060016112d0846108b4565b6112da9190611f75565b60008381526007602052604090205490915080821461132d576001600160a01b03841660009081526006602090815260408083208584528252808320548484528184208190558352600790915290208190555b5060009182526007602090815260408084208490556001600160a01b039094168352600681528383209183525290812055565b60085460009061137290600190611f75565b600083815260096020526040812054600880549394509092849081106113a857634e487b7160e01b600052603260045260246000fd5b9060005260206000200154905080600883815481106113d757634e487b7160e01b600052603260045260246000fd5b600091825260208083209091019290925582815260099091526040808220849055858252812055600880548061141d57634e487b7160e01b600052603160045260246000fd5b6001900381819060005260206000200160009055905550505050565b6000611444836108b4565b6001600160a01b039093166000908152600660209081526040808320868452825280832085905593825260079052919091209190915550565b6001600160a01b03163b151590565b6001600160a01b0382166114b25760405162461bcd60e51b815260040161055890611cbb565b6114bb81610bad565b156114d85760405162461bcd60e51b815260040161055890611a87565b6114e4600083836110a8565b6001600160a01b038216600090815260036020526040812080546001929061150d908490611f49565b909155505060008181526002602052604080822080546001600160a01b0319166001600160a01b03861690811790915590518392907fddf252ad1be2c89b69c2b068fc378daa952ba7f163c4a11628f55a4df523b3ef908290a46107f260008383610610565b82805461157f90611fb8565b90600052602060002090601f0160209004810192826115a157600085556115e7565b82601f106115ba57805160ff19168380011785556115e7565b828001600101855582156115e7579182015b828111156115e75782518255916020019190600101906115cc565b506115f39291506115f7565b5090565b5b808211156115f357600081556001016115f8565b600067ffffffffffffffff808411156116275761162761204e565b604051601f8501601f19908116603f0116810190828211818310171561164f5761164f61204e565b8160405280935085815286868601111561166857600080fd5b858560208301376000602087830101525050509392505050565b80356001600160a01b038116811461049a57600080fd5b6000602082840312156116aa578081fd5b610a3982611682565b600080604083850312156116c5578081fd5b6116ce83611682565b91506116dc60208401611682565b90509250929050565b6000806000606084860312156116f9578081fd5b61170284611682565b925061171060208501611682565b9150604084013590509250925092565b60008060008060808587031215611735578081fd5b61173e85611682565b935061174c60208601611682565b925060408501359150606085013567ffffffffffffffff81111561176e578182fd5b8501601f8101871361177e578182fd5b61178d8782356020840161160c565b91505092959194509250565b600080604083850312156117ab578182fd5b6117b483611682565b9150602083013580151581146117c8578182fd5b809150509250929050565b600080604083850312156117e5578182fd5b6117ee83611682565b946020939093013593505050565b60006020828403121561180d578081fd5b8135610a3981612064565b600060208284031215611829578081fd5b8151610a3981612064565b600060208284031215611845578081fd5b813567ffffffffffffffff81111561185b578182fd5b8201601f8101841361186b578182fd5b610cdf8482356020840161160c565b60006020828403121561188b578081fd5b5035919050565b600081518084526118aa816020860160208601611f8c565b601f01601f19169290920160200192915050565b600083516118d0818460208801611f8c565b8351908301906118e4818360208801611f8c565b01949350505050565b90565b6001600160a01b0391909116815260200190565b6001600160a01b038581168252841660208201526040810183905260806060820181905260009061193790830184611892565b9695505050505050565b901515815260200190565b600060208252610a396020830184611892565b6020808252602b908201527f455243373231456e756d657261626c653a206f776e657220696e646578206f7560408201526a74206f6620626f756e647360a81b606082015260800190565b60208082526032908201527f4552433732313a207472616e7366657220746f206e6f6e20455243373231526560408201527131b2b4bb32b91034b6b83632b6b2b73a32b960711b606082015260800190565b60208082526026908201527f4f776e61626c653a206e6577206f776e657220697320746865207a65726f206160408201526564647265737360d01b606082015260800190565b60208082526025908201527f4552433732313a207472616e736665722066726f6d20696e636f72726563742060408201526437bbb732b960d91b606082015260800190565b6020808252601c908201527f4552433732313a20746f6b656e20616c7265616479206d696e74656400000000604082015260600190565b60208082526024908201527f4552433732313a207472616e7366657220746f20746865207a65726f206164646040820152637265737360e01b606082015260800190565b60208082526019908201527f4552433732313a20617070726f766520746f2063616c6c657200000000000000604082015260600190565b6020808252602c908201527f4552433732313a206f70657261746f7220717565727920666f72206e6f6e657860408201526b34b9ba32b73a103a37b5b2b760a11b606082015260800190565b60208082526038908201527f4552433732313a20617070726f76652063616c6c6572206973206e6f74206f7760408201527f6e6572206e6f7220617070726f76656420666f7220616c6c0000000000000000606082015260800190565b6020808252602a908201527f4552433732313a2062616c616e636520717565727920666f7220746865207a65604082015269726f206164647265737360b01b606082015260800190565b60208082526029908201527f4552433732313a206f776e657220717565727920666f72206e6f6e657869737460408201526832b73a103a37b5b2b760b91b606082015260800190565b60208082526026908201527f416c6c20617661696c61626c65204e4654732068617665206265656e20616c6c6040820152651bd8d85d195960d21b606082015260800190565b6020808252818101527f4552433732313a206d696e7420746f20746865207a65726f2061646472657373604082015260600190565b60208082526019908201527f4e6f206574686572206c65667420746f20776974686472617700000000000000604082015260600190565b6020808252602c908201527f4552433732313a20617070726f76656420717565727920666f72206e6f6e657860408201526b34b9ba32b73a103a37b5b2b760a11b606082015260800190565b6020808252818101527f4f776e61626c653a2063616c6c6572206973206e6f7420746865206f776e6572604082015260600190565b6020808252602f908201527f4552433732314d657461646174613a2055524920717565727920666f72206e6f60408201526e3732bc34b9ba32b73a103a37b5b2b760891b606082015260800190565b60208082526021908201527f4552433732313a20617070726f76616c20746f2063757272656e74206f776e656040820152603960f91b606082015260800190565b60208082526010908201526f2a3930b739b332b9103330b4b632b21760811b604082015260600190565b60208082526031908201527f4552433732313a207472616e736665722063616c6c6572206973206e6f74206f6040820152701ddb995c881b9bdc88185c1c1c9bdd9959607a1b606082015260800190565b6020808252602c908201527f455243373231456e756d657261626c653a20676c6f62616c20696e646578206f60408201526b7574206f6620626f756e647360a01b606082015260800190565b60208082526021908201527f4e6f7420656e6f756768204554482073656e743b20636865636b2070726963656040820152602160f81b606082015260800190565b90815260200190565b60008219821115611f5c57611f5c612022565b500190565b600082611f7057611f70612038565b500490565b600082821015611f8757611f87612022565b500390565b60005b83811015611fa7578181015183820152602001611f8f565b838111156109b75750506000910152565b600281046001821680611fcc57607f821691505b60208210811415611fed57634e487b7160e01b600052602260045260246000fd5b50919050565b600060001982141561200757612007612022565b5060010190565b60008261201d5761201d612038565b500690565b634e487b7160e01b600052601160045260246000fd5b634e487b7160e01b600052601260045260246000fd5b634e487b7160e01b600052604160045260246000fd5b6001600160e01b031981168114610b6a57600080fdfea264697066735822122050b414f8eda56165809640013ff28e2a4867058081fb06fefc284c4d7a3fece464736f6c63430008010033",
  "linkReferences": {},
  "deployedLinkReferences": {}
}